:1000000000308A002D28000030308400831300085F
:10001000031917280630F800F701F70B0D28F80B25
:100020000C287B30F700F70B1328800B0A280800F8
:100030003008F8012F02031820282F08F7002C2879
:10004000F7010830B100AF0DF70D30087702031843
:10005000F700F80DB10B2328080003081F398300AF
:10006000AB01FF30AE00831603170908C0398900C1
:1000700003131F129F120030031788008312870199
:10008000880189018313C0300313A000F930A10057
:10009000A430A200B030A3009930A4009230A50093
:1000A0008230A600F830A7008030A8009030A90068
:1000B000FF3083168600003087008312AE0083165F
:1000C00088008312AE008316870183122008870000
:1000D0008316880183122008880083160614831271
:1000E000061885280230AF00C830B0000420AF0BDE
:1000F0007428831606148312061C8528AA0A2A0867
:10010000023C031885280130AA002A0B88288A2877
:1001100000308B280130AF002B08623C0318922876
:100120000030932801302F05031DAB0A2A08023C3A
:1001300003199C2800309D280130AF00AB08031D37
:10014000A3280030A42801302F05031DAB032B0882
:10015000AF000A30B00018207808AD002B08AF00BF
:100160000A30B00018207708AC0020302D0784003A
:1001700083130008AF000030AE008316870183129E
:100180002F08870020302C07840083130008AF005D
:100190008316880183122F0888000230AF00963042
:0C01A000B0000420AF0BCF286D286300D6
:04400E00E22FFF3F5F
:00000001FF
;PIC16F887
;CRC=8EEA  CREATED="03-Thg10-24 10:44"
