:1000000000308A002D28000030308400831300085F
:10001000031917280630F800F701F70B0D28F80B25
:100020000C287B30F700F70B1328800B0A280800F8
:100030003008F8012F02031820282F08F7002C2879
:10004000F7010830B100AF0DF70D30087702031843
:10005000F700F80DB10B2328080003081F398300AF
:10006000AB01FF30AE00831603170908C0398900C1
:1000700003131F129F120030031788008312870199
:10008000880189018313C0300313A000F930A10057
:10009000A430A200B030A3009930A4009230A50093
:1000A0008230A600F830A7008030A8009030A90068
:1000B000003083168600FF3087008312AE0083165F
:1000C000880000308312AE00831687018312200857
:1000D000870083168801831220088800831606147F
:1000E0008312061886280230AF00C830B000042002
:1000F000AF0B7528831606148312061C8628AA0ADD
:100100002A08023C031886280130AA002A0B8928F5
:100110008B2800308C280130AF002B08623C03187C
:1001200093280030942801302F05031DAB0A2A08BC
:10013000023C03199D2800309E280130AF00AB0817
:10014000031DA4280030A52801302F05031DAB0393
:100150002B08AF000A30B00018207808AD002B083B
:10016000AF000A30B00018207708AC0020302D070F
:10017000840083130008AF000030AE0083168701AF
:1001800083122F08870020302C0784008313000877
:10019000AF008316880183122F0888000230AF0059
:0E01A0009630B0000420AF0BD0286E2863000C
:04400E00E22FFF3F5F
:00000001FF
;PIC16F887
;CRC=A6DB  CREATED="02-Thg10-24 19:30"
