:1000000000308A0018280000243084008313000880
:10001000031917280630F800F701F70B0D28F80B25
:100020000C287B30F700F70B1328800B0A280800F8
:1000300003081F398300A001A101FF30A20083162D
:1000400003170908C039890003131F129F120030DB
:100050000317880083128701880189018313003008
:10006000831603138600FF3087008312A20000303E
:100070008316880006108312061083160814831254
:1000800008184D28A00A0030A200831687018312A9
:10009000200887006430A40004208316881483128B
:1000A00088186228A00803195928A10A6430A400FE
:1000B0000420A0080319A1012108013C03186228AB
:1000C0000130A100A108031D672800306828013015
:1000D000A300A008031D6E2800306F2801302305FF
:1000E00003199328A0030030A2008316870183120E
:1000F0002008870083160610831206140230A3001E
:10010000FA30A4000420A30B802883160610831263
:1001100006100230A300FA30A4000420A30B8B28A1
:0A012000A0080319A1013D286300A7
:04400E00E22FFF3F5F
:00000001FF
;PIC16F887
;CRC=ABA9  CREATED="29-Thg9-24 16:10"
