:1000000000308A0018280000243084008313000880
:10001000031917280630F800F701F70B0D28F80B25
:100020000C287B30F700F70B1328800B0A280800F8
:1000300003081F398300A001A101FF30A20083162D
:1000400003170908C039890003131F129F120030DB
:100050000317880083128701880189018313003008
:10006000831603138600FF3087008312A20000303E
:100070008316880006108312061083160814831254
:1000800008184D28A00A0030A200831687018312A9
:10009000200887006430A40004208316881483128B
:1000A00088186028A0080319A1012108013C031841
:1000B0005C280130A1006028A10A6430A40004205B
:1000C000A108031D6528003066280130A300A008A0
:1000D000031D6C2800306D28013023050319912879
:1000E000A0030030A2008316870183122008870036
:1000F00083160610831206140230A300FA30A400FF
:100100000420A30B7E2883160610831206100230EB
:10011000A300FA30A4000420A30B8928A008031927
:06012000A1013D2863006F
:04400E00E22FFF3F5F
:00000001FF
;PIC16F887
;CRC=B7FA  CREATED="29-Thg9-24 07:58"
