:1000000002308A00682A00004E34E9327410C43786
:100010003A10000043004E34E9327410C4372022F5
:10002000613A3A100001430037308400831300081E
:10003000031927280630F800F701F70B1D28F80BE5
:100040001C287B30F700F70B2328800B1A280800A8
:1000500083168910831289108316091083120910E0
:1000600083168801831233088800831609118312CE
:10007000091183160911831209150130B7001420E4
:1000800008000530B70014203830B30028200530B0
:10009000B70014200C30B30028200630B30028200D
:1000A0000130B30028200230B70014208A110A1250
:1000B000972A8E30F7003408F8003308F900FA0167
:1000C000F808031D6D287908F800F9010830F702D7
:1000D000F808031D6D28F70175280310F81B742814
:1000E000F90DF80DF7036D28F8130800330803190C
:1000F000E628BB0037080319E628BB070318872842
:100100007F30BB02031CE6280319E6288B288130C8
:10011000BB070318E6283B08F700F801F901FA01CC
:100120003408BF00BF173508BE003608BD001830C0
:10013000BB00BC013D1CB4283A08FA07031CA628E2
:10014000F90A031DA628F80A0319BC173908F9078C
:10015000031CAD28F80A0319BC173808B500B517F9
:100160003508F8070318BC17BC0DF80CF90CFA0C8D
:10017000BF0CBE0CBD0C0310BB0B99280130F70758
:100180000318E628F81BCB28BF0DFA0DF90DF80D62
:10019000F7030319E628BF1FDC28FA0A031DDC2831
:1001A000F90A031DDC28F80A031DDC28F80CF90CF9
:1001B000FA0CF70A0319E6283408BC003808BC0614
:1001C000BC1FE428F817EA28F813EA28F701F80119
:1001D000F901FA01080037080319B029C3003B08E8
:1001E0000319B029C302031CFA287F30C307031880
:1001F000B02900298130C302031CB0290319B0299A
:100200004308F700F801F901FA01C2013808C100FA
:10021000C1173908C0003A08BF001930C3003E08B2
:10022000BF02031823290130C00203182329C10289
:1002300003182329C20203182329C20AC10AC00ACB
:100240003E08BF0755293D08C00203183E2901306A
:10025000C10203183E29C20203183E29C20AC10A7C
:100260003D08C0073E08BF07031C5529C00A031DEF
:100270005529C10A031D5529C20A55293C08803851
:10028000C102031854290130C20203185429C20ABA
:100290003C088038C1073D08C007031C3229C10A49
:1002A000031D3229C20A32297A14C30B5829632943
:1002B0000310BF0DC00DC10DC20D0310FA0DF90DD5
:1002C000F80DC40D0F29441C6B290310F80CF90C10
:1002D000FA0CC40C6E29F7030319B029C41B972923
:1002E0000310BF0DC00DC10DC20D3E08BF020318A3
:1002F00083290130C00203188329C102031883290E
:10030000C202031CA6293D08C00203188E29013031
:10031000C10203188E29C202031CA6293C0880389A
:10032000C102031897290130C202031CA629FA0A48
:10033000031DA629F90A031DA629F80A031DA629EB
:10034000F70A0319B029F80CF90CFA0C3808C300A5
:100350003C08C306C31FAE29F817B429F813B42903
:10036000F701F801F901FA0108008E30F7003308AF
:10037000F7023408F9003508F800F917F7080319EF
:10038000CC290310F908031DC829F8080319CC2942
:10039000F90CF80CF70BC129B41FD329F809F90996
:1003A000F80A0319F90A08008316891083128910C4
:1003B00083160910831209148316880183123608E4
:1003C00088008316091183120911831609118312FB
:1003D00009150130B700142008000B08B3008B1377
:1003E000831603178C170C140000000083120313EC
:1003F000B31B8B1703170C087F390319412A03130A
:10040000B30003170D080313B40003170F080313F9
:10041000B5003308B600D421340803178D00031348
:10042000350803178F0003130B08B6008B138316D0
:1004300003178C170C140000000083120313B61B63
:100440008B1703170C0D0E0D7F390319412A031367
:10045000B30003170D080313B40003170F080313A9
:10046000B5003308B600D421340803178D000313F8
:10047000350803178F008D0A03198F0A0313ED291E
:10048000031703130800F801F901F701FA01360810
:10049000031D4D2A35080319672A1030B7000310D1
:1004A000B30DB40DF70DFA0D36087A02031D5A2A62
:1004B00035087702031C632A3508F702031CFA0388
:1004C0003608FA020314F80DF90DB70B4F2A08008D
:1004D00003081F3983004E30A7006230A6001C308D
:1004E000A5008130A400FF30B000B201B101831635
:1004F00003170908C039890003131F129F12003027
:100500000317880083128701880189018313FF3054
:10051000831603138500003087008312B000831612
:1005200088000910891009118911831241281F17A9
:100530009F1383169F1783121F148316031709082E
:10054000C039890003131F129F120330031788005C
:100550000030F800831203131F08C33978049F008A
:100560000A30B70014209F149F18B42A1E08F900FF
:1005700083161E08F8007908FA001E088312B300DB
:100580007908B40059207A08AF007908AE007808DD
:10059000AD007708AC002708B6002608B50025088E
:1005A000B4002408B3002F08BA002E08B9002D08A3
:1005B000B8002C08B70076207A08B6007908B50094
:1005C0007808B4007708B3007A08BA007908B9004F
:1005D0007808B8007708B700BE01BD012030BC0024
:1005E0008230BB00EB207A08B6007908B5007808A5
:1005F000B4007708B300B5217908A1007808A000FD
:100600008030B3002820043003178D0000308F00A5
:100610000313ED212108B4002008B300B6010A300D
:10062000B50043227908B4007808B3003030B3072E
:100630000318B40A3308B600D4212108B4002008F6
:10064000B300B6010A30B50043227708B3007A0838
:10065000B4003030B3070318B40A3308B600D4210D
:10066000DF30B600D4210A3003178D0000308F0030
:100670000313ED210430F8001F08C33978049F00EC
:100680000A30B70014209F149F18442B1E08F9004D
:1006900083161E08F8007908FA001E088312B300BA
:1006A0007908B40059207A08AB007908AA007808C4
:1006B000A9007708A800B601B5014830B40085301C
:1006C000B3002B08BA002A08B9002908B800280886
:1006D000B70076207A08B6007908B5007808B4002B
:1006E0007708B3007A08BA007908B9007808B8002A
:1006F0007708B700BE01C030BD007F30BC00883035
:10070000BB00EB207A08B6007908B5007808B40081
:100710007708B300B5217908A3007808A200C0309B
:10072000B30028200B3003178D0000308F00031317
:10073000ED212308B4002208B300B6010A30B50049
:1007400043227908B4007808B3003030B3070318A7
:10075000B40A3308B600D4212308B4002208B30039
:10076000B6010A30B50043227708B3007A08B40016
:100770003030B3070318B40A3308B600D421DF3091
:10078000B600D421133003178D0000308F000313FF
:10079000ED2123082102031CDA2B031DD32B200893
:1007A00022020318DA2B30103008831687008312D8
:1007B0000714E02B301030088316870083120710CF
:0807C00083160317A82A630049
:04400E00E22FFF3F5F
:00000001FF
;PIC16F887
;CRC=2217  CREATED="06-Thg10-24 20:55"
