:1000000002308A00672A00004E34E9327410C43787
:100010003A10000043002D308400831300080319B8
:100020001E280630F800F701F70B1428F80B1328E8
:100030007B30F700F70B1A28800B11280800831675
:1000400089108312891083160910831209108316F0
:100050008801831229088800831609118312091167
:1000600083160911831209150130AD000B20080019
:100070000530AD000B203830A9001F200530AD0041
:100080000B200C30A9001F200630A9001F200130D2
:10009000A9001F200230AD000B208A110A12AF2ADE
:1000A0008E30F7002A08F8002908F900FA01F8084C
:1000B000031D64287908F800F9010830F702F808F0
:1000C000031D6428F7016C280310F81B6B28F90D39
:1000D000F80DF7036428F8138A110A12BF2A2908B9
:1000E0000319DF28B1002D080319DF28B107031811
:1000F00080287F30B102031CDF280319DF28842801
:100100008130B1070318DF283108F700F801F90141
:10011000FA012A08B500B5172B08B4002C08B30063
:100120001830B100B201331CAD283008FA07031CA7
:100130009F28F90A031D9F28F80A0319B2172F08F0
:10014000F907031CA628F80A0319B2172E08AB00FA
:10015000AB172B08F8070318B217B20DF80CF90CFF
:10016000FA0CB50CB40CB30C0310B10B922801308F
:10017000F7070318DF28F81BC428B50DFA0DF90D91
:10018000F80DF7030319DF28B51FD528FA0A031D58
:10019000D528F90A031DD528F80A031DD528F80C1F
:1001A000F90CFA0CF70A0319DF282A08B2002E0806
:1001B000B206B21FDD28F817E328F813E328F70189
:1001C000F801F901FA018A110A12D02A2D0803193F
:1001D000AB29B90031080319AB29B902031CF52872
:1001E0007F30B9070318AB29FB288130B902031C03
:1001F000AB290319AB293908F700F801F901FA0115
:10020000B8012E08B700B7172F08B6003008B500A0
:100210001930B9003408B50203181E290130B6029E
:1002200003181E29B70203181E29B80203181E2935
:10023000B80AB70AB60A3408B50750293308B60217
:10024000031839290130B70203183929B8020318F5
:100250003929B80AB70A3308B6073408B507031CAA
:100260005029B60A031D5029B70A031D5029B80AA0
:10027000502932088038B70203184F290130B802DC
:1002800003184F29B80A32088038B7073308B60771
:10029000031C2D29B70A031D2D29B80A2D297A140C
:1002A000B90B53295E290310B50DB60DB70DB80D66
:1002B0000310FA0DF90DF80DBA0D0A293A1C66293A
:1002C0000310F80CF90CFA0CBA0C6929F70303199E
:1002D000AB29BA1B92290310B50DB60DB70DB80D99
:1002E0003408B50203187E290130B60203187E29AE
:1002F000B70203187E29B802031CA1293308B602ED
:10030000031889290130B70203188929B802031C90
:10031000A12932088038B702031892290130B802A7
:10032000031CA129FA0A031DA129F90A031DA12909
:10033000F80A031DA129F70A0319AB29F80CF90CD7
:10034000FA0C2E08B9003208B906B91FA929F81706
:10035000AF29F813AF29F701F801F901FA018A1161
:100360000A12E72A8E30F7002908F7022A08F90056
:100370002B08F800F917F7080319C9290310F90821
:10038000031DC529F8080319C929F90CF80CF70B46
:10039000BE29AA1FD029F809F909F80A0319F90A90
:1003A0008A110A12F02A8316891083128910831683
:1003B0000910831209148316880183122C088800FF
:1003C0008316091183120911831609118312091565
:1003D0000130AD000B2008000B08A9008B13831619
:1003E00003178C170C140000000083120313A91BC1
:1003F0008B1703170C087F390319402A0313A90030
:1004000003170D080313AA0003170F080313AB000B
:100410002908AC00D3212A0803178D0003132B08E9
:1004200003178F0003130B08AC008B1383160317FD
:100430008C170C140000000083120313AC1B8B17E5
:1004400003170C0D0E0D7F390319402A0313A90061
:1004500003170D080313AA0003170F080313AB00BB
:100460002908AC00D3212A0803178D0003132B0899
:1004700003178F008D0A03198F0A0313EC29031742
:1004800003130800F801F901F701FA012C08031D14
:100490004C2A2B080319662A1030AD000310A90D51
:1004A000AA0DF70DFA0D2C087A02031D592A2B0804
:1004B0007702031C622A2B08F702031CFA032C089C
:1004C000FA020314F80DF90DAD0B4E2A08000308CB
:1004D0001F3983004E30A5006230A4001C30A300F9
:1004E0008130A200FF30A600A801A70183160317E0
:1004F0000908C039890003131F129F120030031727
:10050000880083128701880189018313FF308316D5
:1005100003138500003087008312A600831688002D
:10052000091089100911891183121F179F1383164F
:100530009F1783121F14831603170908C0398900F7
:1005400003131F129F120130031788000030F800B8
:10055000831203131F08C33978049F0038289F149F
:100560009F18B02A1E08F90083161E08F8007908A3
:10057000FA001E088312A9007908AA00502825084D
:10058000AC002408AB002308AA002208A9007A08BE
:10059000B0007908AF007808AE007708AD006F288A
:1005A0007A08AC007908AB007808AA007708A9009F
:1005B0007A08B0007908AF007808AE007708AD007F
:1005C000B401B3012030B2008230B100E6287A08CD
:1005D000AC007908AB007808AA007708A900B22916
:1005E0007908A1007808A0008030A9001F200430FD
:1005F00003178D0000308F000313EC212108AA009F
:100600002008A900AC010A30AB0042227908AA00F8
:100610007808A9003030A9070318AA0A2908AC00F5
:10062000D3212108AA002008A900AC010A30AB00A0
:1006300042227708A9007A08AA003030A9070318D7
:10064000AA0A2908AC00D321DF30AC00D3210A303C
:1006500003178D0000308F000313EC21A108031D48
:10066000352B20081D3C03183C2B2610260883162A
:10067000870083120714422B261026088316870052
:0806800083120710AF2A63008A
:04400E00E22FFF3F5F
:00000001FF
;PIC16F887
;CRC=317D  CREATED="03-Thg10-24 10:35"
