:1000000000308A0018280000243084008313000880
:10001000031917280630F800F701F70B0D28F80B25
:100020000C287B30F700F70B1328800B0A280800F8
:1000300003081F398300A0012110FF30A20083169E
:1000400003170908C039890003131F129F120030DB
:100050000317880083128701880189018313FE300A
:10006000831603138600003087008312A200FF303E
:10007000831688000610831206100030A200831633
:10008000870183122008870083160814831208183A
:1000900059280A30A4000420831608148312081C6F
:1000A0005928A00A0030A200831687018312200875
:1000B0008700831688148312881875280A30A400D4
:1000C0000420831688140030831288180130A3009E
:1000D0000030211C0130A305A008031D7128003049
:1000E000722801302305031D21140030211801302E
:1000F000A400A008031D7E2800307F2801302405BD
:100100000319A328A0030030A200831687018312DD
:100110002008870083160610831206140230A300FD
:10012000FA30A4000420A30B902883160610831233
:1001300006100230A300FA30A4000420A30B9B2871
:0A014000A0080319211044286300F1
:04400E00E22FFF3F5F
:00000001FF
;PIC16F887
;CRC=6BA8  CREATED="05-Thg10-24 05:29"
