:1000000000308A0018280000243084008313000880
:10001000031917280630F800F701F70B0D28F80B25
:100020000C287B30F700F70B1328800B0A280800F8
:1000300003081F398300A001A101FF30A20083162D
:1000400003170908C039890003131F129F120030DB
:100050000317880083128701880189018313FF3009
:10006000831603138600003087008312A200FF303E
:10007000831688000610831206100030A200831633
:1000800087018312870183160814831208185828E1
:100090000A30A4000420831608148312081C582870
:1000A000A00A0030A200831687018312200887006F
:1000B000831688148312881877280A30A400042035
:1000C000831688140030831288180130A300A10819
:1000D00003196C2800306D280130A305A008031D0A
:1000E00073280030742801302305031DA10AA108DC
:1000F000031D7C2800307D280130A300A008031DCB
:10010000832800308428013023050319A828A00380
:100110000030A2008316870183122008870083160F
:100120000610831206140230A300FA30A400042043
:10013000A30B952883160610831206100230A30025
:10014000FA30A4000420A30BA028A0080319A101E1
:0401500043286300DD
:04400E00E22FFF3F5F
:00000001FF
;PIC16F887
;CRC=0994  CREATED="03-Thg10-24 10:41"
