:1000000000308A0018280000243084008313000880
:10001000031917280630F800F701F70B0D28F80B25
:100020000C287B30F700F70B1328800B0A280800F8
:1000300003081F398300A001A101FF30A20083162D
:1000400003170908C039890003131F129F120030DB
:100050000317880083128701880189018313003008
:10006000831603138600FF3087008312A20000303E
:100070008316880006108312061083160814831254
:10008000081852280A30A40004208316081483128A
:10009000081C5228A00A0030A20083168701831290
:1000A00020088700831688148312881871280A3064
:1000B000A4000420831688140030831288180130AD
:1000C000A300A10803196628003067280130A305A2
:1000D000A008031D6D2800306E2801302305031D84
:1000E000A10AA108031D7628003077280130A3005B
:1000F000A008031D7D2800307E2801302305031948
:10010000A228A0030030A2008316870183122008D2
:10011000870083160610831206140230A300FA30FB
:10012000A4000420A30B8F28831606108312061048
:100130000230A300FA30A4000420A30B9A28A008E0
:080140000319A1013D28630031
:04400E00E22FFF3F5F
:00000001FF
;PIC16F887
;CRC=BCF8  CREATED="01-Thg10-24 20:33"
