:1000000000308A0018280000243084008313000880
:10001000031917280630F800F701F70B0D28F80B25
:100020000C287B30F700F70B1328800B0A280800F8
:1000300003081F398300A001A101FF30A20083162D
:1000400003170908C039890003131F129F120030DB
:100050000317880083128701880189018313003008
:10006000831603138600FF3087008312A20000303E
:1000700083168800061083120610A20083168701DB
:1000800083128701831608148312081857280A3030
:10009000A4000420831608148312081C5728A00A01
:1000A0000030A20083168701831220088700831680
:1000B00088148312881876280A30A4000420831636
:1000C00088140030831288180130A300A108031996
:1000D0006B2800306C280130A305A008031D72288E
:1000E0000030732801302305031DA10AA108031D58
:1000F0007B2800307C280130A300A008031D822843
:1001000000308328013023050319A728A0030030FD
:10011000A200831687018312200887008316061029
:10012000831206140230A300FA30A4000420A30BAB
:10013000942883160610831206100230A300FA30AA
:10014000A4000420A30B9F28A0080319A1014228A2
:0201500063004A
:04400E00E22FFF3F5F
:00000001FF
;PIC16F887
;CRC=A8BE  CREATED="02-Thg10-24 05:28"
